{"abi":[{"type":"constructor","inputs":[{"name":"_router","type":"address","internalType":"address"},{"name":"_ctf","type":"address","internalType":"address"},{"name":"_collateralToken","type":"address","internalType":"address"}],"stateMutability":"nonpayable"},{"type":"function","name":"COLLATERAL_TOKEN","inputs":[],"outputs":[{"name":"","type":"address","internalType":"address"}],"stateMutability":"view"},{"type":"function","name":"CTF","inputs":[],"outputs":[{"name":"","type":"address","internalType":"address"}],"stateMutability":"view"},{"type":"function","name":"IMPLEMENTATION","inputs":[],"outputs":[{"name":"","type":"address","internalType":"address"}],"stateMutability":"view"},{"type":"function","name":"ROUTER","inputs":[],"outputs":[{"name":"","type":"address","internalType":"address"}],"stateMutability":"view"},{"type":"function","name":"allMatchboxes","inputs":[{"name":"","type":"uint256","internalType":"uint256"}],"outputs":[{"name":"","type":"address","internalType":"address"}],"stateMutability":"view"},{"type":"function","name":"createMatchbox","inputs":[{"name":"salt","type":"bytes32","internalType":"bytes32"}],"outputs":[{"name":"matchbox","type":"address","internalType":"address"}],"stateMutability":"nonpayable"},{"type":"function","name":"getAllMatchboxes","inputs":[{"name":"offset","type":"uint256","internalType":"uint256"},{"name":"limit","type":"uint256","internalType":"uint256"}],"outputs":[{"name":"matchboxes","type":"address[]","internalType":"address[]"}],"stateMutability":"view"},{"type":"function","name":"getImplementation","inputs":[],"outputs":[{"name":"","type":"address","internalType":"address"}],"stateMutability":"view"},{"type":"function","name":"getMatchboxesForOwner","inputs":[{"name":"owner","type":"address","internalType":"address"}],"outputs":[{"name":"matchboxes","type":"address[]","internalType":"address[]"}],"stateMutability":"view"},{"type":"function","name":"getTotalMatchboxes","inputs":[],"outputs":[{"name":"count","type":"uint256","internalType":"uint256"}],"stateMutability":"view"},{"type":"function","name":"isMatchbox","inputs":[{"name":"","type":"address","internalType":"address"}],"outputs":[{"name":"","type":"bool","internalType":"bool"}],"stateMutability":"view"},{"type":"function","name":"ownerToMatchboxes","inputs":[{"name":"","type":"address","internalType":"address"},{"name":"","type":"uint256","internalType":"uint256"}],"outputs":[{"name":"","type":"address","internalType":"address"}],"stateMutability":"view"},{"type":"function","name":"predictMatchboxAddress","inputs":[{"name":"owner","type":"address","internalType":"address"},{"name":"salt","type":"bytes32","internalType":"bytes32"}],"outputs":[{"name":"predicted","type":"address","internalType":"address"}],"stateMutability":"view"},{"type":"event","name":"MatchboxCreated","inputs":[{"name":"owner","type":"address","indexed":true,"internalType":"address"},{"name":"matchbox","type":"address","indexed":true,"internalType":"address"},{"name":"timestamp","type":"uint256","indexed":false,"internalType":"uint256"}],"anonymous":false},{"type":"error","name":"DeploymentFailed","inputs":[]},{"type":"error","name":"InvalidParameters","inputs":[]},{"type":"error","name":"MatchboxAlreadyExists","inputs":[]}],"bytecode":{"object":"0x6101003461015c57601f61220f38819003918201601f19168301926001600160401b039290918385118386101761012357816060928492604097885283398101031261015c5761004e81610160565b906100668461005f60208401610160565b9201610160565b6001600160a01b03938385169391929184158015610152575b8015610148575b6101375760a0528160c0528260e052855193611679938486019286841090841117610123578686948193608097610b9688395f8652602086015216888401521660608201520301905ff08015610119571660805251610a219081610175823960805181818161025c0152610840015260a05181818161021801526103ab015260c05181610512015260e0518161067d0152f35b82513d5f823e3d90fd5b634e487b7160e01b5f52604160045260245ffd5b8651630e52390960e41b8152600490fd5b5085841615610086565b508583161561007f565b5f80fd5b51906001600160a01b038216820361015c5756fe60806040526004361015610011575f80fd5b5f3560e01c80632e856291146100df57806331654ca3146100da57806331d22421146100d557806332fe7b26146100d05780633a4741bd146100b757806386c773f4146100cb578063a09ba239146100c6578063a557c137146100c1578063a629b43f146100bc578063aaf10f42146100b7578063b7bd86de146100b2578063c28a0bfe146100ad5763f5f1f1a7146100a8575f80fd5b610668565b61059b565b610541565b610247565b6104fd565b6104a7565b6102c8565b61028b565b610203565b61018b565b610143565b346100fc575f3660031901126100fc576020600154604051908152f35b5f80fd5b602090816040818301928281528551809452019301915f5b828110610126575050505090565b83516001600160a01b031685529381019392810192600101610118565b346100fc5760403660031901126100fc5761017161016560243560043561092e565b60405191829182610100565b0390f35b600435906001600160a01b03821682036100fc57565b346100fc576020806003193601126100fc576001600160a01b0390816101af610175565b165f9081528082526040812092604051908193808654938481520195845280842093915b8383106101ea5761017186610165818a03826106fd565b84548116875295810195600194850194909201916101d3565b346100fc575f3660031901126100fc576040517f00000000000000000000000000000000000000000000000000000000000000006001600160a01b03168152602090f35b346100fc575f3660031901126100fc576040517f00000000000000000000000000000000000000000000000000000000000000006001600160a01b03168152602090f35b346100fc5760203660031901126100fc576001600160a01b036102ac610175565b165f526002602052602060ff60405f2054166040519015158152f35b346100fc5760203660031901126100fc576040516001600160601b03193360601b16602082019081526004356034808401919091528252601f19915f91829161031f91906103176054826106fd565b5190206107fc565b926103428461033d3360018060a01b03165f525f60205260405f2090565b610782565b61034b8461071f565b6001600160a01b0384165f90815260026020526040902061037390805460ff19166001179055565b60405163865024c960e01b602082019081526001600160a01b038616602483015260449283018252916103a690826106fd565b5190827f00000000000000000000000000000000000000000000000000000000000000005af16103d46107bd565b50156104325760405142815261017191906001600160a01b0382169033907fb1fc767d8f0ae89386160c1a1c1b68ec300b821e8c4123baf2f7fa8504f0077890602090a36040516001600160a01b0390911681529081906020820190565b604051633011642560e01b8152600490fd5b634e487b7160e01b5f52603260045260245ffd5b60015481101561048d5760015f527fb10e2d527612073b26eecdfd717e6a320cf44b4afac2b0732d9fcbe2b7fa0cf601905f90565b610444565b805482101561048d575f5260205f2001905f90565b346100fc5760403660031901126100fc576104c0610175565b6024359060018060a01b038091165f525f60205260405f2080548310156100fc576020926104ed91610492565b9190546040519260031b1c168152f35b346100fc575f3660031901126100fc576040517f00000000000000000000000000000000000000000000000000000000000000006001600160a01b03168152602090f35b346100fc5760203660031901126100fc576004356001548110156100fc5760015f527fb10e2d527612073b26eecdfd717e6a320cf44b4afac2b0732d9fcbe2b7fa0cf601546040516001600160a01b039091168152602090f35b346100fc5760403660031901126100fc5761017161064e6106426105bd610175565b60405160609190911b6001600160601b031916602082019081526024356034808401919091528252906105f16054826106fd565b5190206105fc61081e565b6020815191012060405190602082019260ff60f81b84523060601b60218401526035830152605582015260558152610633816106c0565b5190206001600160a01b031690565b6001600160a01b031690565b6040516001600160a01b0390911681529081906020820190565b346100fc575f3660031901126100fc576040517f00000000000000000000000000000000000000000000000000000000000000006001600160a01b03168152602090f35b634e487b7160e01b5f52604160045260245ffd5b6080810190811067ffffffffffffffff8211176106dc57604052565b6106ac565b6020810190811067ffffffffffffffff8211176106dc57604052565b90601f8019910116810190811067ffffffffffffffff8211176106dc57604052565b600154600160401b8110156106dc57600181018060015581101561048d5760015f527fb10e2d527612073b26eecdfd717e6a320cf44b4afac2b0732d9fcbe2b7fa0cf60180546001600160a01b0319166001600160a01b03909216919091179055565b8054600160401b8110156106dc5761079f91600182018155610492565b819291549060031b9160018060a01b03809116831b921b1916179055565b3d156107f7573d9067ffffffffffffffff82116106dc57604051916107ec601f8201601f1916602001846106fd565b82523d5f602084013e565b606090565b61080461081e565b6020815191015ff56001600160a01b038116156104325790565b604051733d602d80600a3d3981f3363d3d373d3d3d363d7360601b60208201527f0000000000000000000000000000000000000000000000000000000000000000606090811b6001600160601b03191660348301526e5af43d82803e903d91602b57fd5bf360881b604883015260378252810167ffffffffffffffff8111828210176106dc5760405290565b67ffffffffffffffff81116106dc5760051b60200190565b906108cc826108aa565b6108d960405191826106fd565b82815280926108ea601f19916108aa565b0190602036910137565b634e487b7160e01b5f52601160045260245ffd5b9190820180921161091557565b6108f4565b805182101561048d5760209160051b010190565b90600190815490818410156109d157830190818411610915578082116109c9575b5082810390811161091557610963816108c2565b925f5b828110610974575050505090565b6109ba6109a161098c6109878486610908565b610458565b905460039190911b1c6001600160a01b031690565b6109ab838861091a565b6001600160a01b039091169052565b5f198114610915578301610966565b90505f61094f565b505050506040516109e1816106e1565b5f81525f3681379056fea264697066735822122038a82c12decd8cf7b9eec6e9c25351aee2723c03c899e7b2a11ab3ef0e10919f64736f6c63430008140033610100346200011857601f6200167938819003918201601f19168301916001600160401b038311848410176200011c5780849260809460405283398101031262000118576200004e8162000130565b906200005d6020820162000130565b620000796060620000716040850162000130565b930162000130565b60809390935260a0526001600160a01b031660c05260e052604051611533908162000146823960805181818161016d01528181610362015281816106f4015281816109930152610b54015260a05181818161092401528181610a3f0152610f41015260c051818181610537015281816110e9015261143b015260e05181818160e50152818161038d015281816109d001528181610ed501526111620152f35b5f80fd5b634e487b7160e01b5f52604160045260245ffd5b51906001600160a01b0382168203620001185756fe6080604081815260049182361015610015575f80fd5b5f92833560e01c918263117803e314610b405750816322f3e2d414610b1c57816330bc1f411461095357816332fe7b261461090f578163334ee98a146107ea578163484620371461073c57816351b42b00146106df5781635bc34f71146106c25781636931b3ae146106a35781636e04ff0d14610615578163711e3215146105a357816399687c4a14610566578163a629b43f14610522578163c107532914610334578163d7098afc14610118575063f5f1f1a7146100d2575f80fd5b34610114578160031936011261011457517f00000000000000000000000000000000000000000000000000000000000000006001600160a01b03168152602090f35b5080fd5b83833461011457602090816003193601126103305767ffffffffffffffff90843582811161032c573660238201121561032c578086013592831161032c576024908181019082369160c08702010111610328577f00000000000000000000000000000000000000000000000000000000000000006001600160a01b031633036103195760ff91600292808454166103095785156102f957875b8681106101f557887fe7635ed4e1603974c9454537d4121f266ce7738885e84792ffe8a394db1940c68989898982600155600160ff1982541617905551908152a180f35b606061271081610206848b89610c24565b01351180156102d6575b6102c65761021f828987610c24565b6003805492680100000000000000008410156102b3576102456001948581018455610bb5565b9490946102a257833585558c840135908501558983013589850155820135908301558b8201608082013580151580910361029e57815460ff191690861617905560a001356005919091015561029990610c02565b6101b1565b8c80fd5b634e487b7160e01b8e528d8f52878efd5b50634e487b7160e01b8c5260418d52858cfd5b86516391c7d22b60e01b81528b90fd5b50866102e3838a88610c24565b0135816102f1848b89610c24565b013510610210565b84516391c7d22b60e01b81528990fd5b84516328cda61560e01b81528990fd5b82516282b42960e81b81528790fd5b8580fd5b8480fd5b8280fd5b90503461033057816003193601126103305780356001600160a01b03818116939184900361032c57602435927f0000000000000000000000000000000000000000000000000000000000000000918083163303610514577f0000000000000000000000000000000000000000000000000000000000000000168581036104b35760206024918551928380926370a0823160e01b825230878301525afa9081156104a9578791610474575b50935b8061046e5750835b84116104605750815163a9059cbb60e01b6020808301919091526001600160a01b03929092166024820152604480820185905281527feaff4b37086828766ad3268786972c0cd24259d4c87a80f9d3963a3c3d999b0d9391929061045890610452606482610c80565b86610dd8565b51908152a280f35b82516312171d8360e31b8152fd5b936103e9565b90506020813d82116104a1575b8161048e60209383610c80565b8101031261049d57515f6103de565b8680fd5b3d9150610481565b84513d89823e3d90fd5b5082516370a0823160e01b81523082820152602081602481895afa9081156104a95787916104e3575b50936103e1565b90506020813d821161050c575b816104fd60209383610c80565b8101031261049d57515f6104dc565b3d91506104f0565b5082516282b42960e81b8152fd5b505034610114578160031936011261011457517f00000000000000000000000000000000000000000000000000000000000000006001600160a01b03168152602090f35b83903461011457602036600319011261011457803567ffffffffffffffff8111610330576105a09161059a91369101610b83565b90610e88565b80f35b919050346103305760203660031901126103305781359260035484101561061257506105d060c093610bb5565b50805492600182015492600283015490600560ff60038601549486015416940154948151968752602087015285015260608401521515608083015260a0820152f35b80fd5b828434610612576020928360031936011261011457803567ffffffffffffffff81116103305761064791369101610b83565b50506106516113d5565b929091815194859315158452828185015284518093850152815b83811061068c57505060608094508284010152601f80199101168101030190f35b80860182015187820160600152869450810161066b565b5050346101145781600319360112610114576020906001549051908152f35b505034610114578160031936011261011457602091549051908152f35b919050346103305782600319360112610330577f00000000000000000000000000000000000000000000000000000000000000006001600160a01b03163303610730578260ff196002541660025580f35b516282b42960e81b8152fd5b9050346103305760203660031901126103305780359260a0835161075f81610c34565b828152826020820152828582015282606082015282608082015201526001548310156107dc57506107da61079d61079760c094610bb5565b50610e3d565b9151809260a08091805184526020810151602085015260408101516040850152606081015160608501526080810151151560808501520151910152565bf35b90516328cda61560e01b8152fd5b8284346106125780600319360112610612576003549267ffffffffffffffff84116108fc57509181516020610824818460051b0183610c80565b8282526003855280820192857fc2575a0e9e593c00f959f8c92f12db2869c3395a3b0502d05e2516446f71f85b855b8383106108d557505050508351938185019282865251809352840192945b82811061087e5784840385f35b9091928260c0826108c66001948a5160a08091805184526020810151602085015260408101516040850152606081015160608501526080810151151560808501520151910152565b01960191019492919094610871565b6006856001926108e9859c98999a9c610e3d565b8152019201920191909795949397610853565b634e487b7160e01b825260419052602490fd5b505034610114578160031936011261011457517f00000000000000000000000000000000000000000000000000000000000000006001600160a01b03168152602090f35b83833461011457806003193601126101145782359067ffffffffffffffff60243581811161032c576109889036908701610b83565b906001600160a01b037f000000000000000000000000000000000000000000000000000000000000000081169033829003610b0d5760ff6002541615610afd578754610afd577f000000000000000000000000000000000000000000000000000000000000000016938551916323b872dd60e01b602084015260248301523060448301528660648301526064825260a082019082821090821117610aea57879492610a398695938693895285610dd8565b610a65887f00000000000000000000000000000000000000000000000000000000000000008096610ce1565b8287519384928337810182815203925af191610a7f610ca2565b9215610ada57839450602083805181010312610ad55760207f4ccaaa3bdcfe6cf7795887b22c4709bdea932f1d06bfaecd9689baa6c6a5abe5930151610ac58554610c02565b855582519182526020820152a280f35b505050fd5b81516312171d8360e31b81528590fd5b634e487b7160e01b885260418952602488fd5b85516328cda61560e01b81528990fd5b85516282b42960e81b81528990fd5b50503461011457816003193601126101145760209060ff6002541690519015158152f35b8490346101145781600319360112610114577f00000000000000000000000000000000000000000000000000000000000000006001600160a01b03168152602090f35b9181601f84011215610bb15782359167ffffffffffffffff8311610bb15760208381860195010111610bb157565b5f80fd5b600354811015610bee5760069060035f52027fc2575a0e9e593c00f959f8c92f12db2869c3395a3b0502d05e2516446f71f85b01905f90565b634e487b7160e01b5f52603260045260245ffd5b5f198114610c105760010190565b634e487b7160e01b5f52601160045260245ffd5b9190811015610bee5760c0020190565b60c0810190811067ffffffffffffffff821117610c5057604052565b634e487b7160e01b5f52604160045260245ffd5b6020810190811067ffffffffffffffff821117610c5057604052565b90601f8019910116810190811067ffffffffffffffff821117610c5057604052565b3d15610cdc573d9067ffffffffffffffff8211610c505760405191610cd1601f8201601f191660200184610c80565b82523d5f602084013e565b606090565b60405163095ea7b360e01b602082018181526001600160a01b038516602484015260448084019690965294825294939092610d1d606485610c80565b60205f809386519082875af182513d82610db3575b505015610d42575b505050509050565b60405160208101969096526001600160a01b0316602486015260448086018290528552608085019067ffffffffffffffff821186831017610d9f5750610d959394610d909160405282610dd8565b610dd8565b805f808080610d3a565b634e487b7160e01b81526041600452602490fd5b909150610dd057506001600160a01b0383163b15155b5f80610d32565b600114610dc9565b905f602091828151910182855af115610e32575f513d610e2957506001600160a01b0381163b155b610e075750565b604051635274afe760e01b81526001600160a01b039091166004820152602490fd5b60011415610e00565b6040513d5f823e3d90fd5b90604051610e4a81610c34565b60a0600582948054845260018101546020850152600281015460408501526003810154606085015260ff600482015416151560808501520154910152565b60025460ff5f9116156113c35780549260019283548510156113b157610eb061079786610bb5565b94806110c8575b50604080516370a0823160e01b8152306004820152602096919390917f00000000000000000000000000000000000000000000000000000000000000006001600160a01b031691908884602481865afa9384156110be57879461108f575b50831561107e5760808101518793929190156110745750835b80851161106c575b50828495610f6782967f00000000000000000000000000000000000000000000000000000000000000008096610ce1565b8288519384928337810182815203925af1610f80610ca2565b9015611005578581805181010312610bb157850151610f9f8454610c02565b808555955f19870194878611610ff1575083519283528201527f4ccaaa3bdcfe6cf7795887b22c4709bdea932f1d06bfaecd9689baa6c6a5abe59190a2541115610fe557565b60ff1960025416600255565b634e487b7160e01b81526011600452602490fd5b5050927f9276172af588047c1a95c753a9202369ce9fedf5db7110843292f5a7ad582c2292507f507269636520636f6e73747261696e74206e6f74206d6574000000000000000060609254946018815193808552840152820152a260ff1960025416600255565b935082610f36565b60a0015193610f2e565b85516312171d8360e31b8152600490fd5b9093508881813d83116110b7575b6110a78183610c80565b81010312610bb15751925f610f15565b503d61109d565b86513d89823e3d90fd5b5f19810190811161139d576107976110df91610bb5565b60018060a01b03807f000000000000000000000000000000000000000000000000000000000000000016825190602093848101918983511b9260409586519063856296f760e01b82526004958c878401526024978884015260448301528882606481875afa918215611335578c9261136e575b5087519063039dd75360e41b82527f000000000000000000000000000000000000000000000000000000000000000016918287830152878201528881604481875afa80156113355789908d9061133f575b8951627eeac760e11b81523089820190815260208101929092529250829081906040015b0381875afa908115611335578c91611304575b506111ec575b50505050505050610eb7565b86519767ffffffffffffffff948989018681118b8210176112f25789528d8a528d828b019483368737511b8a51156112e05784525198843b1561029e579892908c94928e918a519b8c96626dc0df60e21b885260848801938b890152888c8901526044880152608060648801525180925260a48601939287905b8382106112bf5750505050508383809203925af180156112b55761128d575b8080806111e0565b84979597116112a457505052915f80808080611285565b634e487b7160e01b85526041905283fd5b84513d8a823e3d90fd5b92959750929550808094875181520195019101928a94928f948f9795611266565b634e487b7160e01b8e5260328852888efd5b634e487b7160e01b8e5260418852888efd5b90508881813d831161132e575b61131b8183610c80565b8101031261132a57515f6111da565b8b80fd5b503d611311565b88513d8e823e3d90fd5b5081813d8311611367575b6113548183610c80565b8101031261132a57886111c791516111a3565b503d61134a565b9091508881813d8311611396575b6113868183610c80565b8101031261132a5751905f611152565b503d61137c565b634e487b7160e01b84526011600452602484fd5b6040516313524cf560e31b8152600490fd5b6040516328cda61560e01b8152600490fd5b60ff600254161580156114f0575b6114dc575f90815480611406575b5060405160019261140182610c64565b815290565b5f1981019081116114c85761079761141d91610bb5565b5160405163dd34de6760e01b815260048101919091526020816024817f00000000000000000000000000000000000000000000000000000000000000006001600160a01b03165afa9081156114bd57839161148c575b501561147f575f6113f1565b6040518261140182610c64565b90506020813d82116114b5575b816114a660209383610c80565b8101031261033057515f611473565b3d9150611499565b6040513d85823e3d90fd5b634e487b7160e01b83526011600452602483fd5b5f906040516114ea81610c64565b5f815290565b505f5460015411156113e356fea264697066735822122014db0ca35a1d438ee4c5c247e2bc705d0edf4784c0238e74bd7881f089fe5fd364736f6c63430008140033","linkReferences":{}},"methodIdentifiers":{"COLLATERAL_TOKEN()":"f5f1f1a7","CTF()":"a629b43f","IMPLEMENTATION()":"3a4741bd","ROUTER()":"32fe7b26","allMatchboxes(uint256)":"b7bd86de","createMatchbox(bytes32)":"a09ba239","getAllMatchboxes(uint256,uint256)":"31654ca3","getImplementation()":"aaf10f42","getMatchboxesForOwner(address)":"31d22421","getTotalMatchboxes()":"2e856291","isMatchbox(address)":"86c773f4","ownerToMatchboxes(address,uint256)":"a557c137","predictMatchboxAddress(address,bytes32)":"c28a0bfe"},"id":29}