{"abi":[{"type":"constructor","inputs":[{"name":"_ctf","type":"address","internalType":"address"},{"name":"_exchange","type":"address","internalType":"address"},{"name":"_collateralToken","type":"address","internalType":"address"},{"name":"_factory","type":"address","internalType":"address"}],"stateMutability":"nonpayable"},{"type":"function","name":"COLLATERAL_TOKEN","inputs":[],"outputs":[{"name":"","type":"address","internalType":"address"}],"stateMutability":"view"},{"type":"function","name":"CTF","inputs":[],"outputs":[{"name":"","type":"address","internalType":"contract IPolymarketCTF"}],"stateMutability":"view"},{"type":"function","name":"EXCHANGE","inputs":[],"outputs":[{"name":"","type":"address","internalType":"contract IPolymarketExchange"}],"stateMutability":"view"},{"type":"function","name":"FACTORY","inputs":[],"outputs":[{"name":"","type":"address","internalType":"address"}],"stateMutability":"view"},{"type":"function","name":"authorizeMatchbox","inputs":[{"name":"matchbox","type":"address","internalType":"address"}],"outputs":[],"stateMutability":"nonpayable"},{"type":"function","name":"calculateExpectedOutput","inputs":[{"name":"amountIn","type":"uint256","internalType":"uint256"},{"name":"price","type":"uint256","internalType":"uint256"}],"outputs":[{"name":"expectedOut","type":"uint256","internalType":"uint256"}],"stateMutability":"pure"},{"type":"function","name":"calculatePrice","inputs":[{"name":"amountIn","type":"uint256","internalType":"uint256"},{"name":"amountOut","type":"uint256","internalType":"uint256"}],"outputs":[{"name":"price","type":"uint256","internalType":"uint256"}],"stateMutability":"pure"},{"type":"function","name":"isAuthorizedMatchbox","inputs":[{"name":"","type":"address","internalType":"address"}],"outputs":[{"name":"","type":"bool","internalType":"bool"}],"stateMutability":"view"},{"type":"function","name":"swap","inputs":[{"name":"conditionId","type":"bytes32","internalType":"bytes32"},{"name":"outcomeIndex","type":"uint256","internalType":"uint256"},{"name":"amountIn","type":"uint256","internalType":"uint256"},{"name":"minAmountOut","type":"uint256","internalType":"uint256"},{"name":"orderData","type":"bytes","internalType":"bytes"}],"outputs":[{"name":"amountOut","type":"uint256","internalType":"uint256"}],"stateMutability":"nonpayable"},{"type":"function","name":"swapWithConstraints","inputs":[{"name":"conditionId","type":"bytes32","internalType":"bytes32"},{"name":"outcomeIndex","type":"uint256","internalType":"uint256"},{"name":"amountIn","type":"uint256","internalType":"uint256"},{"name":"minPrice","type":"uint256","internalType":"uint256"},{"name":"maxPrice","type":"uint256","internalType":"uint256"},{"name":"orderData","type":"bytes","internalType":"bytes"}],"outputs":[{"name":"amountOut","type":"uint256","internalType":"uint256"}],"stateMutability":"nonpayable"},{"type":"event","name":"TradeExecuted","inputs":[{"name":"matchbox","type":"address","indexed":true,"internalType":"address"},{"name":"conditionId","type":"bytes32","indexed":true,"internalType":"bytes32"},{"name":"outcomeIndex","type":"uint256","indexed":false,"internalType":"uint256"},{"name":"amountIn","type":"uint256","indexed":false,"internalType":"uint256"},{"name":"amountOut","type":"uint256","indexed":false,"internalType":"uint256"},{"name":"price","type":"uint256","indexed":false,"internalType":"uint256"}],"anonymous":false},{"type":"error","name":"InvalidParameters","inputs":[]},{"type":"error","name":"InvalidPrice","inputs":[]},{"type":"error","name":"OrderFailed","inputs":[]},{"type":"error","name":"SafeERC20FailedOperation","inputs":[{"name":"token","type":"address","internalType":"address"}]},{"type":"error","name":"SlippageExceeded","inputs":[]},{"type":"error","name":"TransferFailed","inputs":[]},{"type":"error","name":"UnauthorizedCaller","inputs":[]}],"bytecode":{"object":"0x610100346200016757601f6200164e38819003918201601f19168301916001600160401b038311848410176200016b5780849260809460405283398101031262000167576200004e816200017f565b906200005d602082016200017f565b916200007a606062000072604085016200017f565b93016200017f565b6001600160a01b03918216608052921660a05260c05260e0526040516114b990816200019582396080518181816101c10152818161024a0152818161030f015281816103f101528181610438015281816104ab01528181610717015281816108dc0152818161096501528181610a2101528181610b4501528181610ba70152610c19015260a05181818161028d015281816106cd015281816109ae01528181610a920152610ae5015260c05181818160e20152818161016301528181610211015281816102bc0152818161087d0152818161092c01526109d2015260e05181818161076b01526107c10152f35b5f80fd5b634e487b7160e01b5f52604160045260245ffd5b51906001600160a01b0382168203620001675756fe6080806040526004361015610012575f80fd5b5f90813560e01c90816308148a93146107f05750806328932ad4146106fc5780632dd31000146107ab578063865024c914610746578063a629b43f14610701578063a6413a27146106fc578063b50e44b8146106b7578063d7c890c914610111578063f5f1f1a7146100cc5763f8494d771461008c575f80fd5b346100c95760203660031901126100c95760209060ff906040906001600160a01b036100b6610e77565b1681528084522054166040519015158152f35b80fd5b50346100c957806003193601126100c9576040517f00000000000000000000000000000000000000000000000000000000000000006001600160a01b03168152602090f35b50346100c95760a03660031901126100c95760843567ffffffffffffffff811161058157610143903690600401610df0565b91903382528160205260ff604083205416156106a55761019060443530337f00000000000000000000000000000000000000000000000000000000000000006001600160a01b03166112cc565b60405163856296f760e01b8152600480820184905235602480830191909152600190351b60448201526020816064817f00000000000000000000000000000000000000000000000000000000000000006001600160a01b03165afa908115610635578391610672575b5060405163039dd75360e41b81526001600160a01b037f00000000000000000000000000000000000000000000000000000000000000001660048201526024810191909152602081806044810103817f00000000000000000000000000000000000000000000000000000000000000006001600160a01b03165afa908115610635578391610640575b506001600160a01b037f0000000000000000000000000000000000000000000000000000000000000000811693906102e1906044359086907f000000000000000000000000000000000000000000000000000000000000000016611327565b604051627eeac760e11b80825230600483015260248201849052959093906020856044816001600160a01b037f0000000000000000000000000000000000000000000000000000000000000000165afa9485156106355783956105fd575b509061034d91810190610f2f565b9161035883516110f2565b93825b845181101561038c578060c06103746103879388611132565b5101516103818289611132565b52611124565b61035b565b50869083878688823b156105f9576103bd92849283604051809681958294635f0441b960e01b84526004840161115a565b03925af18015610585576105e5575b5050604051918252306004830152602482018390526020826044816001600160a01b037f0000000000000000000000000000000000000000000000000000000000000000165afa80156105da5784906105a2575b61042a92506112bf565b9060643582106105905782907f00000000000000000000000000000000000000000000000000000000000000006001600160a01b03163b1561058157604051637921219560e11b815230600482015233602482015260448101919091526064810183905260a060848201525f60a4820152818160c481836001600160a01b037f0000000000000000000000000000000000000000000000000000000000000000165af180156105855761056d575b505061271091826044350292604435840414604435151715610559575061050181602093610ea1565b604080516024358152604435602082015290810183905260608101919091526004359033907fc90422dc4677047a348ebfc0dbb1f7298b9138155980fd43c4c196c4d5b4a2669080608081015b0390a3604051908152f35b634e487b7160e01b81526011600452602490fd5b61057690610ebf565b6105815781836104d8565b5080fd5b6040513d84823e3d90fd5b604051638199f5f360e01b8152600490fd5b506020823d6020116105d2575b816105bc60209383610ee7565b810103126105ce5761042a9151610420565b5f80fd5b3d91506105af565b6040513d86823e3d90fd5b6105ee90610ebf565b6105f95783856103cc565b8380fd5b919094506020823d60201161062d575b8161061a60209383610ee7565b810103126105ce5790519361034d61033f565b3d915061060d565b6040513d85823e3d90fd5b90506020813d60201161066a575b8161065b60209383610ee7565b810103126105ce57515f610282565b3d915061064e565b90506020813d60201161069d575b8161068d60209383610ee7565b810103126105ce575160206101f9565b3d9150610680565b604051635c427cd960e01b8152600490fd5b50346100c957806003193601126100c9576040517f00000000000000000000000000000000000000000000000000000000000000006001600160a01b03168152602090f35b610e1e565b50346100c957806003193601126100c9576040517f00000000000000000000000000000000000000000000000000000000000000006001600160a01b03168152602090f35b50346100c95760203660031901126100c957610760610e77565b6001600160a01b03907f0000000000000000000000000000000000000000000000000000000000000000821633036106a5571681528060205260408120600160ff1982541617905580f35b50346100c957806003193601126100c9576040517f00000000000000000000000000000000000000000000000000000000000000006001600160a01b03168152602090f35b82346100c95760c03660031901126100c95760a43567ffffffffffffffff811161058157610822903690600401610df0565b9190923382528160205260ff60408320541615610de157506127109081608435118015610dd4575b610dc25760443515610dc257604435828102048203610559576108736084358360443502610ea1565b6108aa60443530337f00000000000000000000000000000000000000000000000000000000000000006001600160a01b03166112cc565b60405163856296f760e01b8152600480820184905235602480830191909152600190351b6044820152946020866064817f00000000000000000000000000000000000000000000000000000000000000006001600160a01b03165afa958615610635578396610d8d575b5060405163039dd75360e41b81526001600160a01b037f00000000000000000000000000000000000000000000000000000000000000001660048201526024810196909652602086806044810103817f00000000000000000000000000000000000000000000000000000000000000006001600160a01b03165afa958615610635578396610d59575b506109f76044356001600160a01b037f00000000000000000000000000000000000000000000000000000000000000008116907f000000000000000000000000000000000000000000000000000000000000000016611327565b604051627eeac760e11b815230600482015260248101879052946020866044816001600160a01b037f0000000000000000000000000000000000000000000000000000000000000000165afa9586156105da578496610d23575b5090610a5f91810190610f2f565b94610a6a86516110f2565b93835b8751811015610a8b578060c0610374610a86938b611132565b610a6d565b50858785877f00000000000000000000000000000000000000000000000000000000000000006001600160a01b03163b1561058157604051635f0441b960e01b81529283918291610ae091906004840161115a565b0381837f00000000000000000000000000000000000000000000000000000000000000006001600160a01b03165af18015610d0557610d10575b50604051627eeac760e11b815230600482015260248101849052906020826044816001600160a01b037f0000000000000000000000000000000000000000000000000000000000000000165afa8015610d05578690610cd1575b610b7e92506112bf565b9283106105905782610b939160443502610ea1565b9060843582118015610cc6575b610cb557837f00000000000000000000000000000000000000000000000000000000000000006001600160a01b03163b156100c957604051637921219560e11b815230600482015233602482015260448101929092526064820184905260a060848301525f60a48301528160c481836001600160a01b037f0000000000000000000000000000000000000000000000000000000000000000165af180156105da57610c9d575b60208383604051907fc90422dc4677047a348ebfc0dbb1f7298b9138155980fd43c4c196c4d5b4a266600435928061054e339487604435602435859094939260609260808301968352602083015260408201520152565b610ca78491610ebf565b610cb15782610c46565b8280fd5b60405162bfc92160e01b8152600490fd5b506064358210610ba0565b506020823d602011610cfd575b81610ceb60209383610ee7565b810103126105ce57610b7e9151610b74565b3d9150610cde565b6040513d88823e3d90fd5b610d1c90959195610ebf565b9385610b1a565b9095506020813d602011610d51575b81610d3f60209383610ee7565b810103126105f9575194610a5f610a51565b3d9150610d32565b9095506020813d602011610d85575b81610d7560209383610ee7565b81010312610cb15751948661099d565b3d9150610d68565b95506020863d602011610dba575b81610da860209383610ee7565b81010312610cb1579451946020610914565b3d9150610d9b565b604051630e52390960e41b8152600490fd5b506084356064351161084a565b635c427cd960e01b8152600490fd5b9181601f840112156105ce5782359167ffffffffffffffff83116105ce57602083818601950101116105ce57565b346105ce5760403660031901126105ce576024356004358115610dc25761271090818102918183041490151715610e6357602091610e5b91610ea1565b604051908152f35b634e487b7160e01b5f52601160045260245ffd5b600435906001600160a01b03821682036105ce57565b35906001600160a01b03821682036105ce57565b8115610eab570490565b634e487b7160e01b5f52601260045260245ffd5b67ffffffffffffffff8111610ed357604052565b634e487b7160e01b5f52604160045260245ffd5b90601f8019910116810190811067ffffffffffffffff821117610ed357604052565b67ffffffffffffffff8111610ed35760051b60200190565b359060ff821682036105ce57565b60209081818403126105ce57803567ffffffffffffffff918282116105ce570190601f938085840112156105ce57823590610f6982610f09565b956040610f7881519889610ee7565b838852868089019460051b870101958387116105ce57878101945b878610610fa65750505050505050505090565b85358781116105ce5782016101a091601f19918383828a0301126105ce578551908482018281108c8211176110de5787528c8101358252610fe8878201610e8d565b8d830152606094610ffa868301610e8d565b8884015260809561100c878401610e8d565b9084015260a095868301359084015260c095868301359084015260e095868301359084015261010095868301359084015261012095868301359084015261014095868301359084015261016095611064878401610f21565b9084015261018095611077878401610f21565b90840152810135908b82116105ce57019288603f850112156105ce578c840135948b86116110de576110b18e8951938b8901160183610ee7565b858252898887870101116105ce575f8e8781988b8399018387013784010152820152815201950194610f93565b60245f634e487b7160e01b81526041600452fd5b906110fc82610f09565b6111096040519182610ee7565b828152809261111a601f1991610f09565b0190602036910137565b5f198114610e635760010190565b80518210156111465760209160051b010190565b634e487b7160e01b5f52603260045260245ffd5b60409081810191808252835180935260609283830193808260051b850101946020809701935f925b8484106111c657505050505050828183039101528180845192838152019301915f5b8281106111b2575050505090565b8351855293810193928101926001016111a4565b90919293949796605f19878203018452878951918251815260018060a01b0380838501511683830152808685015116868301528484015116848201526080808401519082015260a0808401519082015260c0808401519082015260e080840151908201526101008084015190820152610120808401519082015260ff6101408181860151169083015261016090818501511690820152610180809301516101a08094830152805180948301525f5b8481106112a957505060019282916101c0915f838284010152601f801991011601019a01940194019294939190979697611182565b8181018401518382016101c001528b9301611274565b91908203918211610e6357565b6040516323b872dd60e01b60208201526001600160a01b03928316602482015292909116604483015260648083019390935291815260a081019181831067ffffffffffffffff841117610ed3576113259260405261141e565b565b60405163095ea7b360e01b602082018181526001600160a01b038516602484015260448084019690965294825294939092611363606485610ee7565b60205f809386519082875af182513d826113f9575b505015611388575b505050509050565b60405160208101969096526001600160a01b0316602486015260448086018290528552608085019067ffffffffffffffff8211868310176113e557506113db93946113d6916040528261141e565b61141e565b805f808080611380565b634e487b7160e01b81526041600452602490fd5b90915061141657506001600160a01b0383163b15155b5f80611378565b60011461140f565b905f602091828151910182855af115611478575f513d61146f57506001600160a01b0381163b155b61144d5750565b604051635274afe760e01b81526001600160a01b039091166004820152602490fd5b60011415611446565b6040513d5f823e3d90fdfea264697066735822122076b4f7283bfcb7c4041ebde522c9308f8a569d0e10d0fc2a4aefe719ac350f4564736f6c63430008140033","linkReferences":{}},"methodIdentifiers":{"COLLATERAL_TOKEN()":"f5f1f1a7","CTF()":"a629b43f","EXCHANGE()":"b50e44b8","FACTORY()":"2dd31000","authorizeMatchbox(address)":"865024c9","calculateExpectedOutput(uint256,uint256)":"28932ad4","calculatePrice(uint256,uint256)":"a6413a27","isAuthorizedMatchbox(address)":"f8494d77","swap(bytes32,uint256,uint256,uint256,bytes)":"d7c890c9","swapWithConstraints(bytes32,uint256,uint256,uint256,uint256,bytes)":"08148a93"},"id":30}